{
  "contractName": "FundraiserFactory",
  "abi": [
    {
      "anonymous": false,
      "inputs": [
        {
          "indexed": true,
          "internalType": "contract Fundraiser",
          "name": "fundraiser",
          "type": "address"
        },
        {
          "indexed": true,
          "internalType": "address",
          "name": "owner",
          "type": "address"
        }
      ],
      "name": "FundraiserEvent",
      "type": "event"
    },
    {
      "inputs": [
        {
          "internalType": "string",
          "name": "_name",
          "type": "string"
        },
        {
          "internalType": "string",
          "name": "_url",
          "type": "string"
        },
        {
          "internalType": "string",
          "name": "_imageUrl",
          "type": "string"
        },
        {
          "internalType": "string",
          "name": "_description",
          "type": "string"
        },
        {
          "internalType": "address payable",
          "name": "_beneficiary",
          "type": "address"
        }
      ],
      "name": "createFundraiser",
      "outputs": [],
      "stateMutability": "nonpayable",
      "type": "function"
    },
    {
      "inputs": [],
      "name": "fundraisersCount",
      "outputs": [
        {
          "internalType": "uint256",
          "name": "",
          "type": "uint256"
        }
      ],
      "stateMutability": "view",
      "type": "function"
    },
    {
      "inputs": [
        {
          "internalType": "uint256",
          "name": "limit",
          "type": "uint256"
        },
        {
          "internalType": "uint256",
          "name": "offset",
          "type": "uint256"
        }
      ],
      "name": "fundraisers",
      "outputs": [
        {
          "internalType": "contract Fundraiser[]",
          "name": "coll",
          "type": "address[]"
        }
      ],
      "stateMutability": "view",
      "type": "function"
    }
  ],
  "bytecode": "0x608060405234801561001057600080fd5b5061256c806100206000396000f3fe60806040523480156200001157600080fd5b5060043610620000465760003560e01c806311d752ad146200004b578063704914f8146200006b5780639d3b435514620000a1575b600080fd5b62000069600480360381019062000063919062000570565b620000c3565b005b620000896004803603810190620000839190620006af565b620001cf565b6040516200009891906200081e565b60405180910390f35b620000ab6200037b565b604051620000ba919062000853565b60405180910390f35b6000858585858533604051620000d99062000387565b620000ea9695949392919062000939565b604051809103906000f08015801562000107573d6000803e3d6000fd5b5090506000819080600181540180825580915050600190039060005260206000200160009091909190916101000a81548173ffffffffffffffffffffffffffffffffffffffff021916908373ffffffffffffffffffffffffffffffffffffffff1602179055503373ffffffffffffffffffffffffffffffffffffffff168173ffffffffffffffffffffffffffffffffffffffff167f2f27aef6fbaea2594a1fbe2501acb6aad14f7df3e910e5f2f7e056fcf7ffc4de60405160405180910390a3505050505050565b6060620001db6200037b565b82111562000220576040517f08c379a0000000000000000000000000000000000000000000000000000000008152600401620002179062000a12565b60405180910390fd5b6000826200022d6200037b565b62000239919062000a63565b90508381106200024a57836200024c565b805b9050601481106200025f57601462000261565b805b90508067ffffffffffffffff81111562000280576200027f620003c4565b5b604051908082528060200260200182016040528015620002af5781602001602082028036833780820191505090505b50915060005b81811015620003735760008185620002ce919062000a9e565b81548110620002e257620002e162000afb565b5b9060005260206000200160009054906101000a900473ffffffffffffffffffffffffffffffffffffffff1683828151811062000323576200032262000afb565b5b602002602001019073ffffffffffffffffffffffffffffffffffffffff16908173ffffffffffffffffffffffffffffffffffffffff168152505080806200036a9062000b2a565b915050620002b5565b505092915050565b60008080549050905090565b6119be8062000b7983390190565b6000604051905090565b600080fd5b600080fd5b600080fd5b600080fd5b6000601f19601f8301169050919050565b7f4e487b7100000000000000000000000000000000000000000000000000000000600052604160045260246000fd5b620003fe82620003b3565b810181811067ffffffffffffffff8211171562000420576200041f620003c4565b5b80604052505050565b60006200043562000395565b9050620004438282620003f3565b919050565b600067ffffffffffffffff821115620004665762000465620003c4565b5b6200047182620003b3565b9050602081019050919050565b82818337600083830152505050565b6000620004a46200049e8462000448565b62000429565b905082815260208101848484011115620004c357620004c2620003ae565b5b620004d08482856200047e565b509392505050565b600082601f830112620004f057620004ef620003a9565b5b8135620005028482602086016200048d565b91505092915050565b600073ffffffffffffffffffffffffffffffffffffffff82169050919050565b600062000538826200050b565b9050919050565b6200054a816200052b565b81146200055657600080fd5b50565b6000813590506200056a816200053f565b92915050565b600080600080600060a086880312156200058f576200058e6200039f565b5b600086013567ffffffffffffffff811115620005b057620005af620003a4565b5b620005be88828901620004d8565b955050602086013567ffffffffffffffff811115620005e257620005e1620003a4565b5b620005f088828901620004d8565b945050604086013567ffffffffffffffff811115620006145762000613620003a4565b5b6200062288828901620004d8565b935050606086013567ffffffffffffffff811115620006465762000645620003a4565b5b6200065488828901620004d8565b9250506080620006678882890162000559565b9150509295509295909350565b6000819050919050565b620006898162000674565b81146200069557600080fd5b50565b600081359050620006a9816200067e565b92915050565b60008060408385031215620006c957620006c86200039f565b5b6000620006d98582860162000698565b9250506020620006ec8582860162000698565b9150509250929050565b600081519050919050565b600082825260208201905092915050565b6000819050602082019050919050565b6000819050919050565b60006200074d6200074762000741846200050b565b62000722565b6200050b565b9050919050565b600062000761826200072c565b9050919050565b6000620007758262000754565b9050919050565b620007878162000768565b82525050565b60006200079b83836200077c565b60208301905092915050565b6000602082019050919050565b6000620007c182620006f6565b620007cd818562000701565b9350620007da8362000712565b8060005b8381101562000811578151620007f588826200078d565b97506200080283620007a7565b925050600181019050620007de565b5085935050505092915050565b600060208201905081810360008301526200083a8184620007b4565b905092915050565b6200084d8162000674565b82525050565b60006020820190506200086a600083018462000842565b92915050565b600081519050919050565b600082825260208201905092915050565b60005b83811015620008ac5780820151818401526020810190506200088f565b83811115620008bc576000848401525b50505050565b6000620008cf8262000870565b620008db81856200087b565b9350620008ed8185602086016200088c565b620008f881620003b3565b840191505092915050565b6200090e816200052b565b82525050565b600062000921826200050b565b9050919050565b620009338162000914565b82525050565b600060c0820190508181036000830152620009558189620008c2565b905081810360208301526200096b8188620008c2565b90508181036040830152620009818187620008c2565b90508181036060830152620009978186620008c2565b9050620009a8608083018562000903565b620009b760a083018462000928565b979650505050505050565b7f6f6666736574206f7574206f6620626f756e6473000000000000000000000000600082015250565b6000620009fa6014836200087b565b915062000a0782620009c2565b602082019050919050565b6000602082019050818103600083015262000a2d81620009eb565b9050919050565b7f4e487b7100000000000000000000000000000000000000000000000000000000600052601160045260246000fd5b600062000a708262000674565b915062000a7d8362000674565b92508282101562000a935762000a9262000a34565b5b828203905092915050565b600062000aab8262000674565b915062000ab88362000674565b9250827fffffffffffffffffffffffffffffffffffffffffffffffffffffffffffffffff0382111562000af05762000aef62000a34565b5b828201905092915050565b7f4e487b7100000000000000000000000000000000000000000000000000000000600052603260045260246000fd5b600062000b378262000674565b91507fffffffffffffffffffffffffffffffffffffffffffffffffffffffffffffffff82141562000b6d5762000b6c62000a34565b5b60018201905091905056fe60806040523480156200001157600080fd5b50604051620019be380380620019be8339818101604052810190620000379190620004dc565b620000576200004b6200011960201b60201c565b6200012160201b60201c565b85600490805190602001906200006f929190620001e5565b50846005908051906020019062000088929190620001e5565b508360069080519060200190620000a1929190620001e5565b508260079080519060200190620000ba929190620001e5565b5081600860006101000a81548173ffffffffffffffffffffffffffffffffffffffff021916908373ffffffffffffffffffffffffffffffffffffffff1602179055506200010d816200012160201b60201c565b50505050505062000659565b600033905090565b60008060009054906101000a900473ffffffffffffffffffffffffffffffffffffffff169050816000806101000a81548173ffffffffffffffffffffffffffffffffffffffff021916908373ffffffffffffffffffffffffffffffffffffffff1602179055508173ffffffffffffffffffffffffffffffffffffffff168173ffffffffffffffffffffffffffffffffffffffff167f8be0079c531659141344cd1fd0a4f28419497f9722a3daafe3b4186f6b6457e060405160405180910390a35050565b828054620001f39062000623565b90600052602060002090601f01602090048101928262000217576000855562000263565b82601f106200023257805160ff191683800117855562000263565b8280016001018555821562000263579182015b828111156200026257825182559160200191906001019062000245565b5b50905062000272919062000276565b5090565b5b808211156200029157600081600090555060010162000277565b5090565b6000604051905090565b600080fd5b600080fd5b600080fd5b600080fd5b6000601f19601f8301169050919050565b7f4e487b7100000000000000000000000000000000000000000000000000000000600052604160045260246000fd5b620002fe82620002b3565b810181811067ffffffffffffffff8211171562000320576200031f620002c4565b5b80604052505050565b60006200033562000295565b9050620003438282620002f3565b919050565b600067ffffffffffffffff821115620003665762000365620002c4565b5b6200037182620002b3565b9050602081019050919050565b60005b838110156200039e57808201518184015260208101905062000381565b83811115620003ae576000848401525b50505050565b6000620003cb620003c58462000348565b62000329565b905082815260208101848484011115620003ea57620003e9620002ae565b5b620003f78482856200037e565b509392505050565b600082601f830112620004175762000416620002a9565b5b815162000429848260208601620003b4565b91505092915050565b600073ffffffffffffffffffffffffffffffffffffffff82169050919050565b60006200045f8262000432565b9050919050565b620004718162000452565b81146200047d57600080fd5b50565b600081519050620004918162000466565b92915050565b6000620004a48262000432565b9050919050565b620004b68162000497565b8114620004c257600080fd5b50565b600081519050620004d681620004ab565b92915050565b60008060008060008060c08789031215620004fc57620004fb6200029f565b5b600087015167ffffffffffffffff8111156200051d576200051c620002a4565b5b6200052b89828a01620003ff565b965050602087015167ffffffffffffffff8111156200054f576200054e620002a4565b5b6200055d89828a01620003ff565b955050604087015167ffffffffffffffff811115620005815762000580620002a4565b5b6200058f89828a01620003ff565b945050606087015167ffffffffffffffff811115620005b357620005b2620002a4565b5b620005c189828a01620003ff565b9350506080620005d489828a0162000480565b92505060a0620005e789828a01620004c5565b9150509295509295509295565b7f4e487b7100000000000000000000000000000000000000000000000000000000600052602260045260246000fd5b600060028204905060018216806200063c57607f821691505b60208210811415620006535762000652620005f4565b5b50919050565b61135580620006696000396000f3fe6080604052600436106100f75760003560e01c8063715018a61161008a578063b2bdfa7b11610059578063b2bdfa7b14610308578063de2ed89314610333578063ed88c68e1461035e578063f2fde38b14610368576100f8565b8063715018a6146102705780637284e416146102875780638da5cb5b146102b2578063aba83150146102dd576100f8565b80632abfab4d116100c65780632abfab4d146101d857806338af3eed146102035780633ccfd60b1461022e5780635600f04f14610245576100f8565b80630180b97c1461012d57806306fdde03146101585780631a57f7b4146101835780631c31f710146101af576100f8565b5b61010d3460025461039190919063ffffffff16565b6002819055506003600081548092919061012690610d9a565b9190505550005b34801561013957600080fd5b506101426103a7565b60405161014f9190610df2565b60405180910390f35b34801561016457600080fd5b5061016d6103f1565b60405161017a9190610ea6565b60405180910390f35b34801561018f57600080fd5b5061019861047f565b6040516101a6929190610f86565b60405180910390f35b3480156101bb57600080fd5b506101d660048036038101906101d19190611020565b6105f4565b005b3480156101e457600080fd5b506101ed6106b4565b6040516101fa9190610df2565b60405180910390f35b34801561020f57600080fd5b506102186106ba565b604051610225919061105c565b60405180910390f35b34801561023a57600080fd5b506102436106e0565b005b34801561025157600080fd5b5061025a6107fa565b6040516102679190610ea6565b60405180910390f35b34801561027c57600080fd5b50610285610888565b005b34801561029357600080fd5b5061029c610910565b6040516102a99190610ea6565b60405180910390f35b3480156102be57600080fd5b506102c761099e565b6040516102d49190611098565b60405180910390f35b3480156102e957600080fd5b506102f26109c7565b6040516102ff9190610ea6565b60405180910390f35b34801561031457600080fd5b5061031d610a55565b60405161032a9190611098565b60405180910390f35b34801561033f57600080fd5b50610348610a7b565b6040516103559190610df2565b60405180910390f35b610366610a81565b005b34801561037457600080fd5b5061038f600480360381019061038a91906110df565b610b9d565b005b6000818361039f919061110c565b905092915050565b6000600160003373ffffffffffffffffffffffffffffffffffffffff1673ffffffffffffffffffffffffffffffffffffffff16815260200190815260200160002080549050905090565b600480546103fe90611191565b80601f016020809104026020016040519081016040528092919081815260200182805461042a90611191565b80156104775780601f1061044c57610100808354040283529160200191610477565b820191906000526020600020905b81548152906001019060200180831161045a57829003601f168201915b505050505081565b606080600061048c6103a7565b90508067ffffffffffffffff8111156104a8576104a76111c3565b5b6040519080825280602002602001820160405280156104d65781602001602082028036833780820191505090505b5092508067ffffffffffffffff8111156104f3576104f26111c3565b5b6040519080825280602002602001820160405280156105215781602001602082028036833780820191505090505b50915060005b818110156105ee576000600160003373ffffffffffffffffffffffffffffffffffffffff1673ffffffffffffffffffffffffffffffffffffffff1681526020019081526020016000208281548110610582576105816111f2565b5b9060005260206000209060020201905080600001548583815181106105aa576105a96111f2565b5b60200260200101818152505080600101548483815181106105ce576105cd6111f2565b5b6020026020010181815250505080806105e690610d9a565b915050610527565b50509091565b6105fc610c95565b73ffffffffffffffffffffffffffffffffffffffff1661061a61099e565b73ffffffffffffffffffffffffffffffffffffffff1614610670576040517f08c379a00000000000000000000000000000000000000000000000000000000081526004016106679061126d565b60405180910390fd5b80600860006101000a81548173ffffffffffffffffffffffffffffffffffffffff021916908373ffffffffffffffffffffffffffffffffffffffff16021790555050565b60035481565b600860009054906101000a900473ffffffffffffffffffffffffffffffffffffffff1681565b6106e8610c95565b73ffffffffffffffffffffffffffffffffffffffff1661070661099e565b73ffffffffffffffffffffffffffffffffffffffff161461075c576040517f08c379a00000000000000000000000000000000000000000000000000000000081526004016107539061126d565b60405180910390fd5b6000479050600860009054906101000a900473ffffffffffffffffffffffffffffffffffffffff1673ffffffffffffffffffffffffffffffffffffffff166108fc829081150290604051600060405180830381858888f193505050501580156107c9573d6000803e3d6000fd5b50807fc67387b8229e689a6f1e2c3feafcfae2206a4d6e581bf95e25dbb0c934432a6460405160405180910390a250565b6005805461080790611191565b80601f016020809104026020016040519081016040528092919081815260200182805461083390611191565b80156108805780601f1061085557610100808354040283529160200191610880565b820191906000526020600020905b81548152906001019060200180831161086357829003601f168201915b505050505081565b610890610c95565b73ffffffffffffffffffffffffffffffffffffffff166108ae61099e565b73ffffffffffffffffffffffffffffffffffffffff1614610904576040517f08c379a00000000000000000000000000000000000000000000000000000000081526004016108fb9061126d565b60405180910390fd5b61090e6000610c9d565b565b6007805461091d90611191565b80601f016020809104026020016040519081016040528092919081815260200182805461094990611191565b80156109965780601f1061096b57610100808354040283529160200191610996565b820191906000526020600020905b81548152906001019060200180831161097957829003601f168201915b505050505081565b60008060009054906101000a900473ffffffffffffffffffffffffffffffffffffffff16905090565b600680546109d490611191565b80601f0160208091040260200160405190810160405280929190818152602001828054610a0090611191565b8015610a4d5780601f10610a2257610100808354040283529160200191610a4d565b820191906000526020600020905b815481529060010190602001808311610a3057829003601f168201915b505050505081565b600960009054906101000a900473ffffffffffffffffffffffffffffffffffffffff1681565b60025481565b60006040518060400160405280348152602001428152509050600160003373ffffffffffffffffffffffffffffffffffffffff1673ffffffffffffffffffffffffffffffffffffffff16815260200190815260200160002081908060018154018082558091505060019003906000526020600020906002020160009091909190915060008201518160000155602082015181600101555050610b2e3460025461039190919063ffffffff16565b60028190555060036000815480929190610b4790610d9a565b91905055503373ffffffffffffffffffffffffffffffffffffffff167f264f630d9efa0d07053a31163641d9fcc0adafc9d9e76f1c37c2ce3a558d2c5234604051610b929190610df2565b60405180910390a250565b610ba5610c95565b73ffffffffffffffffffffffffffffffffffffffff16610bc361099e565b73ffffffffffffffffffffffffffffffffffffffff1614610c19576040517f08c379a0000000000000000000000000000000000000000000000000000000008152600401610c109061126d565b60405180910390fd5b600073ffffffffffffffffffffffffffffffffffffffff168173ffffffffffffffffffffffffffffffffffffffff161415610c89576040517f08c379a0000000000000000000000000000000000000000000000000000000008152600401610c80906112ff565b60405180910390fd5b610c9281610c9d565b50565b600033905090565b60008060009054906101000a900473ffffffffffffffffffffffffffffffffffffffff169050816000806101000a81548173ffffffffffffffffffffffffffffffffffffffff021916908373ffffffffffffffffffffffffffffffffffffffff1602179055508173ffffffffffffffffffffffffffffffffffffffff168173ffffffffffffffffffffffffffffffffffffffff167f8be0079c531659141344cd1fd0a4f28419497f9722a3daafe3b4186f6b6457e060405160405180910390a35050565b7f4e487b7100000000000000000000000000000000000000000000000000000000600052601160045260246000fd5b6000819050919050565b6000610da582610d90565b91507fffffffffffffffffffffffffffffffffffffffffffffffffffffffffffffffff821415610dd857610dd7610d61565b5b600182019050919050565b610dec81610d90565b82525050565b6000602082019050610e076000830184610de3565b92915050565b600081519050919050565b600082825260208201905092915050565b60005b83811015610e47578082015181840152602081019050610e2c565b83811115610e56576000848401525b50505050565b6000601f19601f8301169050919050565b6000610e7882610e0d565b610e828185610e18565b9350610e92818560208601610e29565b610e9b81610e5c565b840191505092915050565b60006020820190508181036000830152610ec08184610e6d565b905092915050565b600081519050919050565b600082825260208201905092915050565b6000819050602082019050919050565b610efd81610d90565b82525050565b6000610f0f8383610ef4565b60208301905092915050565b6000602082019050919050565b6000610f3382610ec8565b610f3d8185610ed3565b9350610f4883610ee4565b8060005b83811015610f79578151610f608882610f03565b9750610f6b83610f1b565b925050600181019050610f4c565b5085935050505092915050565b60006040820190508181036000830152610fa08185610f28565b90508181036020830152610fb48184610f28565b90509392505050565b600080fd5b600073ffffffffffffffffffffffffffffffffffffffff82169050919050565b6000610fed82610fc2565b9050919050565b610ffd81610fe2565b811461100857600080fd5b50565b60008135905061101a81610ff4565b92915050565b60006020828403121561103657611035610fbd565b5b60006110448482850161100b565b91505092915050565b61105681610fe2565b82525050565b6000602082019050611071600083018461104d565b92915050565b600061108282610fc2565b9050919050565b61109281611077565b82525050565b60006020820190506110ad6000830184611089565b92915050565b6110bc81611077565b81146110c757600080fd5b50565b6000813590506110d9816110b3565b92915050565b6000602082840312156110f5576110f4610fbd565b5b6000611103848285016110ca565b91505092915050565b600061111782610d90565b915061112283610d90565b9250827fffffffffffffffffffffffffffffffffffffffffffffffffffffffffffffffff0382111561115757611156610d61565b5b828201905092915050565b7f4e487b7100000000000000000000000000000000000000000000000000000000600052602260045260246000fd5b600060028204905060018216806111a957607f821691505b602082108114156111bd576111bc611162565b5b50919050565b7f4e487b7100000000000000000000000000000000000000000000000000000000600052604160045260246000fd5b7f4e487b7100000000000000000000000000000000000000000000000000000000600052603260045260246000fd5b7f4f776e61626c653a2063616c6c6572206973206e6f7420746865206f776e6572600082015250565b6000611257602083610e18565b915061126282611221565b602082019050919050565b600060208201905081810360008301526112868161124a565b9050919050565b7f4f776e61626c653a206e6577206f776e657220697320746865207a65726f206160008201527f6464726573730000000000000000000000000000000000000000000000000000602082015250565b60006112e9602683610e18565b91506112f48261128d565b604082019050919050565b60006020820190508181036000830152611318816112dc565b905091905056fea26469706673582212206e7b9202bdf80d325ebeaa4c49d033cd9a3a0a97306f49dba556df91a168625f64736f6c634300080b0033a2646970667358221220e6a90515c0a6303dff27ac8fd427dfd3ca4e2915421ee5140183842c6c3a1e1f64736f6c634300080b0033",
  "immutableReferences": {},
  "source": "// SPDX-License-Identifier: MIT\r\npragma solidity ^0.8.0;\r\nimport \"openzeppelin-solidity/contracts/utils/math/SafeMath.sol\";\r\nimport \"./Fundraiser.sol\";\r\n\r\ncontract FundraiserFactory {\r\n    using SafeMath for uint256;\r\n\r\n    Fundraiser[] private _fundraisers;\r\n\r\n    //events\r\n    event FundraiserEvent(Fundraiser indexed fundraiser, address indexed owner);\r\n\r\n    //constants\r\n    uint256 constant maxLimit = 20;\r\n\r\n    function createFundraiser(\r\n        string memory _name,\r\n        string memory _url,\r\n        string memory _imageUrl,\r\n        string memory _description,\r\n        address payable _beneficiary\r\n    ) public {\r\n        Fundraiser newFundraiser = new Fundraiser(\r\n            _name,\r\n            _url,\r\n            _imageUrl,\r\n            _description,\r\n            _beneficiary,\r\n            msg.sender\r\n        );\r\n        _fundraisers.push(newFundraiser);\r\n        emit FundraiserEvent(newFundraiser, msg.sender);\r\n    }\r\n\r\n    function fundraisersCount() public view returns (uint256) {\r\n        return _fundraisers.length;\r\n    }\r\n\r\n    function fundraisers(uint256 limit, uint256 offset)\r\n        public\r\n        view\r\n        returns (Fundraiser[] memory coll)\r\n    {\r\n        require(offset <= fundraisersCount(), \"offset out of bounds\");\r\n        uint256 size = fundraisersCount() - offset;\r\n        size = size < limit ? size : limit;\r\n        size = size < maxLimit ? size : maxLimit;\r\n        coll = new Fundraiser[](size);\r\n        for (uint256 i = 0; i < size; i++) {\r\n            coll[i] = _fundraisers[offset + i];\r\n        }\r\n        return coll;\r\n    }\r\n}\r\n",
  "sourcePath": "C:\\Users\\ankur\\Documents\\Github Repository\\charitee-application\\contracts\\Factory.sol",
  "compiler": {
    "name": "solc",
    "version": "0.8.11+commit.d7f03943.Emscripten.clang"
  },
  "schemaVersion": "3.4.4",
  "updatedAt": "2022-01-29T10:34:23.318Z",
  "devdoc": {
    "kind": "dev",
    "methods": {},
    "version": 1
  },
  "userdoc": {
    "kind": "user",
    "methods": {},
    "version": 1
  }
}